:1000000014C1000042C1000040C100003EC1000018
:100010003CC100003AC1000038C1000036C10000F8
:1000200034C1000032C1000030C100002EC1000008
:100030002CC100002AC1000028C1000026C1000018
:1000400024C1000022C1000020C100001EC1000028
:100050001CC100001AC1000018C100000C947808EF
:1000600014C1000019C30000EEC200000EC1000060
:100070000CC100000AC1000008C1000006C1000058
:1000800004C1000002C1000000C10000FEC0000069
:10009000FCC00000FAC00000F8C00000F6C000007C
:1000A000F4C00000F2C00000F0C00000EEC000008C
:1000B000ECC00000EAC00000E8C00000E6C000009C
:1000C000E4C00000E2C00000E0C00000DEC00000AC
:1000D000DCC00000DAC00000D8C00000D6C00000BC
:1000E000D4C0000072067506640668066E06AC068B
:1000F00079067D06830687068B0691069506990686
:10010000AC069F06A306A7060000200023002600D9
:1001100029002C002F00320000010000030106011D
:10012000090100002100240027002A002D003000D2
:10013000330001010000040107010A010000220050
:10014000250028002B002E003100340002010000A1
:10015000050108010B010505050507050808080844
:10016000020202020A0A080804040404010101014F
:10017000010101010303030303030303040707074A
:100180000C0C0C0C0C0C0C0C0202020206060606EF
:10019000060606060B0B0B0B0B0B0B0B01021020BC
:1001A00020080810204010204080020102010804AD
:1001B0000201010204081020408080402010080441
:1001C000020180040201804020100804020108049A
:1001D00002010102040810204080010204081020DE
:1001E000408000000A0B02090C0D0E0807030401F1
:1001F00000000000000000000000000000000000FF
:1002000000000000000000000000000000001211CB
:1002100010000000000000000000000000000000CE
:100220000000000000000000CC0B11241FBECFEF27
:10023000D1E2DEBFCDBF00E00CBF23E0ACEFB2E007
:1002400001C01D92A73BB207E1F712E0A0E0B2E0C7
:10025000E8EBFCE100E00BBF02C007900D92AC3F61
:10026000B107D9F711E0C5E1D1E000E006C0219760
:100270000109802FFE010E942C0CC431D10780E0BF
:100280000807A9F7D4D70C945A0EBACECF92DF92B2
:10029000EF92FF920F931F93CF93DF936C017A013C
:1002A0008B01C0E0D0E0CE15DF0581F0D8016D9163
:1002B0008D01D601ED91FC910190F081E02DC601F8
:1002C0001995892B11F02196EECF7E01C701DF91A0
:1002D000CF911F910F91FF90EF90DF90CF900895F5
:1002E000089580E090E00895FC01538D448D252F02
:1002F00030E0842F90E0821B930B541710F0CF96C0
:10030000089501970895FC01918D828D981761F0F1
:10031000828DDF01A80FB11D5D968C91928D9F5F3C
:100320009F73928F90E008958FEF9FEF0895FC01E7
:10033000918D828D981731F0828DE80FF11D858D9A
:1003400090E008958FEF9FEF0895FC01918D228D2D
:10035000892F90E0805C9F4F821B91098F739927B2
:1003600008958DEF92E0F1DF21E0892B09F420E080
:10037000822F0895FC01848DDF01A80FB11DA35ABF
:10038000BF4F2C91848D90E001968F739927848FB5
:10039000A689B7892C93A089B1898C9183708064D8
:1003A0008C93938D848D981306C00288F389E02D79
:1003B00080818F7D80830895EF92FF920F931F932A
:1003C000CF93DF93EC0181E0888F9B8D8C8D981308
:1003D00005C0E889F989808185FD25C0F62E0B8D41
:1003E00010E00F5F1F4F0F731127E02E8C8DE81266
:1003F0000BC00FB607FCFACFE889F989808185FF29
:10040000F5CFCE01B7DFF2CF8B8DFE01E80FF11DE6
:10041000E35AFF4FF0829FB7F8940B8FEA89FB896C
:10042000808180620AC09FB7F894EE89FF8960835B
:10043000E889F98980818370806480839FBF81E02F
:1004400090E0DF91CF911F910F91FF90EF90089571
:10045000CF93DF93EC01888D8823C1F0EA89FB8973
:10046000808185FD05C0A889B9898C9186FD0EC063
:100470000FB607FCF5CF808185FFF2CFA889B98937
:100480008C9185FFEDCFCE0175DFE8CFDF91CF9165
:10049000089580E090E0892B19F063DF811125C079
:1004A00080E090E0892B41F080E090E0892B21F002
:1004B0000E94000081111CC080E090E0892B41F077
:1004C00080E090E0892B21F00E940000811113C090
:1004D00080E090E0892BA1F080E090E0892B81F012
:1004E0000E94000081110AC008950E940000D8CF28
:1004F0000E940000E1CF0E940000EACF0C940000AF
:100500000895BC016E5F7F4FDC01ED91FC9101907D
:10051000F081E02D40E0199591E0811190E0892F64
:1005200008950E94350EFC0124813581232B31F47E
:1005300021E061157105A1F0FB0108C0FC0180817B
:1005400091816115710531F421E0FC0180818823DE
:1005500039F005C00E944A0E21E0892B09F020E005
:10056000822F0895FC01808191810C94CC0C0F9313
:100570001F93CF93DF93EC0188819981009729F035
:100580002A813B812617370788F48B016F5F7F4FE5
:100590000E94550D009761F0998388831B830A831D
:1005A0002C813D81232B11F4FC01108281E001C0DC
:1005B00080E0DF91CF911F910F910895CF93DF934A
:1005C000EC0188819981009711F00E94CC0C19826E
:1005D00018821D821C821B821A82DF91CF9108959E
:1005E000EF92FF920F931F93CF93DF93EC017B0168
:1005F0008A01BA01BCDF811103C0CE01DFDF07C071
:100600001D830C83B701888199810E94530ECE010E
:10061000DF91CF911F910F91FF90EF900895FC0112
:100620001182108213821282158214826115710563
:1006300049F0FB0101900020E9F73197AF01461B1B
:10064000570BCECF08951F920F920FB60F92112421
:100650000BB60F922F933F934F935F936F937F93BC
:100660008F939F93AF93BF93EF93FF938DEF92E0A0
:1006700081DEFF91EF91BF91AF919F918F917F911B
:100680006F915F914F913F912F910F900BBE0F9003
:100690000FBE0F901F9018951F920F920FB60F92DA
:1006A00011240BB60F922F938F939F93EF93FF9389
:1006B000E0910D03F0910E038081E0911303F0911E
:1006C000140382FD12C09081809116038F5F8F7397
:1006D00020911703821751F0E0911603F0E0E350E8
:1006E000FD4F958F8093160301C08081FF91EF919C
:1006F0009F918F912F910F900BBE0F900FBE0F9077
:100700001F90189508958EBD00000DB407FEFDCF13
:100710008EB508958CBD9DBD08951F93CF93DF9333
:10072000EC01162F83E590E0F5DF60E08E8515D3B0
:10073000812F8068E8DF80E0E6DF182F61E08E859A
:100740000CD3812FDF91CF911F9108950F931F93A9
:10075000CF93DF93EC01062F142F83E590E0DADFCF
:1007600060E08E85FAD2802FCEDF812FCCDF61E072
:100770008E85DF91CF911F910F91EFC28F929F9243
:10078000AF92CF92EF92FF920F931F93CF93DF938D
:1007900000D01F921F92CDB7DEB74C0182E08D834F
:1007A00040E064E2C401D2DF40E066E2C401CEDF93
:1007B00046E268E4C401CADF86E28B838D81823021
:1007C00028F16CE1C401A9DF482F4F776CE1C40127
:1007D000BDDF87E08C83A12CC12CCE0104967C0167
:1007E0008E010B5F1F4F9E012F5F3F4F41E0BE0107
:1007F0006D5F7F4FC4010BD381110BC08D8182309F
:1008000039F481E09C81911104C008C084E001C0EA
:1008100081E091E0823019F090E001C091E0892FF1
:100820000F900F900F900F900F90DF91CF911F912D
:100830000F91FF90EF90CF90AF909F908F90089581
:10084000CF92DF92EF92FF920F931F93CF93DF939C
:10085000EC016B01142F790140E062E077DF44E0A6
:100860006AE0CE0173DF40E864E1CE016FDFA601EC
:10087000612FCE01A0D243E062E0CE0167DF08E83D
:1008800013E16AE0CE0149DF82FF10C040E062E080
:10089000CE015CDF64E4CE0140DFF701808362E4D7
:1008A000CE013BDFF701818380E004C001501109D4
:1008B00041F783E0DF91CF911F910F91FF90EF906F
:1008C000DF90CF9008952F923F924F925F926F9258
:1008D0007F928F929F92AF92BF92CF92DF92EF92D0
:1008E000FF920F931F93CF93DF93CDB7DEB72C9773
:1008F0000FB6F894DEBF0FBECDBF413508F006C17C
:10090000342E3B014C016CE108DF482F4F776CE13E
:10091000C4011CDF2224239422E0221691F033E04C
:100920002316E1F081E02812F3C083E989833320A4
:10093000D1F081E0F3019081953008F480E0B12C92
:1009400017C0F5E9F983332081F081E0F30190814C
:10095000983008F480E043E0B42E0AC087E9898328
:1009600036E0B32E04C0B12C02C023E0B22E80E0EA
:10097000D32CF8E0BF9ED0181124D7FCD12C8823AB
:1009800021F098E89B8333E001C032E021E09D2D07
:10099000977009F420E09D2D959595959595290FD3
:1009A00031F4882309F48FC028E0D20E8CC0811165
:1009B00002C094E001C093E0291708F4922FEB2DB8
:1009C000F0E03196E60DF71D232F4191A1E0B0E054
:1009D000AC0FBD1FA20FB11D4C932F5F422F431BC5
:1009E000491798F3DECF8111DAC03FE13D150CF4D1
:1009F00091C080E2D82E80E78A839B818C818927F1
:100A00009D8189279E8189278F839E01285F3F4F83
:100A100047E0BE016F5F7F4FC40112DF8111A0C0AC
:100A20001A8693E09B87FE0137962F01F9E0FC8739
:100A3000CA844C2D4295407F4C0D6AE1C40186DE8C
:100A4000A12CFE013A967F018E01055F1F4F920196
:100A50004C85BE016F5F7F4FC401D9D1182F823002
:100A600009F0C1CF6CE1C40158DE85FD98C08F71DB
:100A700009F480E2282F30E04D2DDD0C550B421794
:100A800053070CF045C0D82EC901019787709927EC
:100A900025952595259531E0320F21E0811101C082
:100AA00020E0230FE1E0F0E0EC0FFD1FE20FF11D6D
:100AB00021E030E002C0220F331F8A95E2F7C9011E
:100AC0009081892B80833FE13D150CF494CF9D2DBF
:100AD00097709A878D2D8595859585958E5F292FA1
:100AE00030E1839F200D11242A8321E0911101C060
:100AF00020E0280F2C8744244394512C4C0E5D1E7B
:100B0000480E511C99E0981B9B8792CF16E047C076
:100B100015E045C08B81883809F43EC082E094E03E
:100B2000EB2DF0E03196E60DF71D980FA1E0B0E057
:100B3000AC0FBD1FA80FB11D2C9121938F5F89139E
:100B4000F5CF8B85833021F58A85811121C09E01E7
:100B50002D5F3F4F41E0B201C40172DE882311F0E6
:100B6000182F1DC09B81F2018181981313C09C81B5
:100B7000828198130FC0808182FF02C02394CCCE63
:100B8000F3018387822D880F820D8F5F808307C0DA
:100B900011E005C017E003C083E093E0C1CF812FCF
:100BA0002C960FB6F894DEBF0FBECDBFDF91CF916C
:100BB0001F910F91FF90EF90DF90CF90BF90AF907B
:100BC0009F908F907F906F905F904F903F902F906D
:100BD00008953FB7F8948091AF039091B003A0912E
:100BE000B103B091B20326B5A89B05C02F3F19F001
:100BF0000196A11DB11D3FBFBA2FA92F982F88279D
:100C0000820F911DA11DB11DBC01CD0142E0660FF7
:100C1000771F881F991F4A95D1F70895009761F0B3
:100C2000FC0101900020E9F73197AF01481B590BF7
:100C3000BC018DEF92E02ACB80E090E00895EF9226
:100C4000FF920F931F93CF93DF936115710511F4FA
:100C500080E01BC041155105B9F07B01EC018C818E
:100C60009D818A01080F191FB801CE0180DC8823FD
:100C700079F3288139818C819D81B701820F931F7F
:100C80000E94530E1D830C8381E0DF91CF911F9151
:100C90000F91FF90EF900895CF93DF93BFDFEC01AA
:100CA0008CE492E0BBDF8C0F9D1FDF91CF91089504
:100CB00090E0FC013197E231F10508F04DC0882742
:100CC000EE58FF4F8F4FC8C5809180008F7703C0CB
:100CD000809180008F7D80938000089580918000B6
:100CE000877FF9CF84B58F7702C084B58F7D84BDAF
:100CF00008958091B0008F7703C08091B0008F7D00
:100D00008093B0000895809190008F7707C0809104
:100D100090008F7D03C080919000877F809390002A
:100D200008958091A0008F7707C08091A0008F7DEB
:100D300003C08091A000877F8093A00008958091D8
:100D400020018F7707C0809120018F7D03C08091A3
:100D50002001877F8093200108951F93CF93DF9315
:100D6000282F30E0F901EE51FE4F8491F901E4564D
:100D7000FE4FD491F901EA5AFE4FC491CC23B9F049
:100D8000162F811195DFEC2FF0E0EE0FFF1FE45CD2
:100D9000FE4FA591B4919FB7F894111104C08C91A6
:100DA000D095D82302C0EC91DE2BDC939FBFDF915E
:100DB000CF911F910895DF92EF92FF920F931F93AF
:100DC000CF93DF938C01F62ED42EE52E83E590E0B1
:100DD000A1DC60E0F8018685C0DF82E194DCCD2DE6
:100DE000DE2DCE018F0D911D7C01EC16FD0619F054
:100DF000899189DCFACF61E0F8018685AEDFDF9169
:100E0000CF911F910F91FF90EF90DF907BCC4F928D
:100E10005F926F927F928F929F92AF92BF92CF928A
:100E2000DF92EF92FF920F931F93CF93DF931F9266
:100E30001F92CDB7DEB74C012B01D42E3901E1143E
:100E4000F10419F0F701408101C040E0B42EF0E157
:100E5000CF9EB00C112440E062E0C40177DC4FE784
:100E600068E0C40173DC40E864E1C4016FDCA20106
:100E70006D2DC401A0DF4B2D6AE1C40167DC4CE09D
:100E800062E0C40163DC6AE1C40147DC482F4068CA
:100E90006AE1C4015BDC80ED482E87E0582E68E0F3
:100EA000C4013BDC982F907341F480FD04C081E0C5
:100EB000481A5108A1F783E094C06CE0C4012DDC0E
:100EC000D82E837109F08AC06114710409F450C0EE
:100ED0000115110509F44CC064E1C4011EDCB82EF3
:100EE000F80180818B1508F473C0B082BB20B1F18A
:100EF00083E590E00FDC60E0F40186852EDFBA9494
:100F000082E901DCCC20A1F08FEF90E02C0101C040
:100F1000440CCA94EAF782E9F6DB242D2095F3010C
:100F2000908192238421892B8083CC24C39401C097
:100F3000C12C4C2C512C460C571CCB1430F482E99C
:100F4000E2DBF2018083C394F4CF80E0DCDBF201CA
:100F5000808361E0F401868500DFD4DB68E1C401B1
:100F6000DCDB8770E114F10421F0F701808301C01C
:100F700080E0D3FC2FC06114710471F101151105DB
:100F800059F1AA2049F1F8014081413021F484301F
:100F900039F58FEF26C0423018F1811121C042503F
:100FA0009E012F5F3F4FB301C4014ADC811119C07C
:100FB000F8018081680E711CF3013297908189815C
:100FC00098130EC0319690818A81981309C004C08D
:100FD00084E007C082E005C080E003C081E001C07A
:100FE00087E00F900F90DF91CF911F910F91FF90AD
:100FF000EF90DF90CF90BF90AF909F908F907F90B9
:101000006F905F904F900895CF93DF9390E0FC0135
:10101000E456FE4F2491FC01EA5AFE4F8491882346
:1010200061F190E0880F991FFC01EE5DFE4FC591C4
:10103000D491FC01E45CFE4FA591B491611109C00B
:101040009FB7F8948881209582238883EC912E2382
:101050000BC0623061F49FB7F8948881322F3095CD
:1010600083238883EC912E2B2C939FBF06C08FB7D0
:10107000F894E8812E2B28838FBFDF91CF910895BC
:101080008F929F92AF92BF92CF92DF92EF92FF9298
:101090006B017C019EDD4B015C01C114D104E104B4
:1010A000F104E9F096DDDC01CB0188199909AA0960
:1010B000BB09883E9340A105B10578F321E0C21A2F
:1010C000D108E108F10888EE880E83E0981EA11C83
:1010D000B11CC114D104E104F10421F7DECFFF906B
:1010E000EF90DF90CF90BF90AF909F908F9008953A
:1010F0001F920F920FB60F9211242F933F938F934D
:101100009F93AF93BF938091AB039091AC03A09159
:10111000AD03B091AE033091AA0323E0230F2D3726
:1011200020F40196A11DB11D05C026E8230F0296EB
:10113000A11DB11D2093AA038093AB039093AC0330
:10114000A093AD03B093AE038091AF039091B00331
:10115000A091B103B091B2030196A11DB11D80937E
:10116000AF039093B003A093B103B093B203BF91C8
:10117000AF919F918F913F912F910F900FBE0F9044
:101180001F901895AF92BF92CF92DF92EF92FF928D
:101190000F931F93CF93DF937C016B015A01452B73
:1011A00031F400E010E0AA24A394B12C02C001E0C5
:1011B00010E06EE472E0C70132DAD6011496CD91E8
:1011C000DC9115970C171D0730F5AC16BD0608F419
:1011D000E501D601ED91FC911197EC0FFD1FB08058
:1011E00010826D917C91600F711F6115710559F02E
:1011F000FB0101900020E9F73197AF01461B570B27
:10120000C701EED902C0C701D9D9F6018081918109
:10121000C80FD91FB882C701DF91CF911F910F91DD
:10122000FF90EF90DF90CF90BF90AF900895CF9355
:10123000DF93CDB7DEB7E3970FB6F894DEBF0FBEEE
:10124000CDBF789484B5826084BD84B5816084BD4F
:1012500085B5826085BD85B5816085BD80916E0054
:10126000816080936E001092810080918100826085
:1012700080938100809181008160809381008091C2
:1012800080008160809380008091B10084608093B1
:10129000B1008091B00081608093B0008091910096
:1012A0008260809391008091910081608093910091
:1012B000809190008160809390008091A100826075
:1012C0008093A1008091A10081608093A100809112
:1012D000A00081608093A0008091210182608093B2
:1012E0002101809121018160809321018091200161
:1012F00081608093200180917A00846080937A00DD
:1013000080917A00826080937A0080917A00816077
:1013100080937A0080917A00806880937A0010929E
:10132000C100E0910D03F0910E0382E08083E09113
:101330000903F0910A031082E0910B03F0910C0372
:101340008FEC808310921503E0911103F09112034A
:1013500086E08083E0910F03F0911003808180612B
:101360008083E0910F03F091100380818860808377
:10137000E0910F03F0911003808180688083E091F9
:101380000F03F091100380818F7D80831FB7F89445
:101390008091FC02811123C0EBE8F1E08491E1ED42
:1013A000F1E09491E82FF0E0EE0FFF1FEE5DFE4FAD
:1013B000A591B491EC91E92319F461E085E3CDDCCA
:1013C00061E085E321DE8CB580618CBD8CB58064E5
:1013D0008CBD61E084E318DE61E083E315DE80917B
:1013E000FC028F5F8093FC021FBF61E08091A80325
:1013F0000BDE61E08091A803B0DC8091A9038F3FF0
:1014000059F44FE062E08AE993E0A0D962E370E02A
:1014100080E090E035DE23C060E0F6DD2091A90396
:1014200030E0F901EE51FE4F8491F901E456FE4F90
:101430000491F901EA5AFE4F1491112309F499C15C
:10144000811136DCE12FF0E0EE0FFF1FE85FFE4F69
:10145000A591B491EC91E02309F48BC1D2CF62E065
:101460008AE993E05AD984FDFACF40E064E28AE940
:1014700093E06CD940E066E28AE993E067D946E2FE
:1014800068E48AE993E062D940E864E58AE993E098
:101490005DD949EA66E58AE993E058D943E068E511
:1014A0008AE993E053D948EE6AE58AE993E04ED998
:1014B00040E46AE28AE993E049D94DE362E28AE9CD
:1014C00093E044D968E28AE993E027D9982F937092
:1014D000933031F0482F436068E28AE993E036D9CF
:1014E00085E292E0D9DB8CE492E098DB8E010F5F1D
:1014F0001F4F8AE993E042D9882309F437C18AE96A
:1015000093E00E948102D82E882309F42FC18FE432
:1015100092E084DB6EE472E0CE018E9680D8C12C1E
:1015200080919C03C81608F06EC08C2D90E09C0141
:1015300026563C4F7901F9018381803118F082E60B
:1015400092E002C082E292E069DBF701438150E061
:1015500060E070E019A2FE01B196DB01CA018F7054
:101560009927AA27BB2794E07695679557954795C5
:101570009A95D1F731978A3014F4805D01C0895C67
:101580008083411551056105710539F7CF0146DBAF
:10159000F7018381803118F062E672E002C062E2F6
:1015A00072E0C8013CD84D815E8169817A81CE01AB
:1015B0008E9645DBC8010E94B202F70183811BA20F
:1015C0001AA21DA21CA21FA21EA240E1B80190E017
:1015D0001AD1F80101900020E9F73197AF01401BC3
:1015E000510BB801CE0182960E94F0024EA15FA17C
:1015F0006AA17BA1CE018E9622DBCE0182960E944B
:10160000B202C3948DCF8CE492E008DB89E592E0CE
:1016100005DBEEA4FFA4E114F10461F0F701808181
:10162000882341F0082E000C990B23D3F7018193F6
:101630007F01F4CF4AA95BA9BE01625D7F4FCE0155
:101640008896A0DD64E672E0CE0188960E9493023F
:1016500081119DC04AA95BA9BE01625D7F4FCE0189
:10166000829690DD60E772E0CE0182960E9493023E
:10167000811114C04AA95BA9BE01625D7F4FC801F8
:1016800081DD6CE772E0C8010E949302DD24D394EF
:10169000811101C0D12CC8010E94B202CE018296F4
:1016A0000E94B202CE0188960E94B202DD2009F4A7
:1016B00048C088E892E0F0DA8CE492E0AFDA4AA918
:1016C0005BA9BE01625D7F4FC8015CDD64E672E02C
:1016D000C8010E949302F82EC8010E94B202FF20A6
:1016E00019F08AE992E038C04AA95BA9BE01625D9F
:1016F0007F4FC80147DD60E772E0C8010E94930296
:10170000F82EC8010E94B202FF2019F086EA92E08A
:1017100023C04AA95BA9BE01625D7F4FC80132DDCB
:101720006CE772E0C8010E949302F82EC8010E9483
:10173000B202FF2019F083EB92E00EC081EC92E040
:101740000BC080ED92E0A8DA81EC92E0A5DA8FED93
:1017500092E0A2DA8FEE92E09FDA68EB7BE080E025
:1017600090E08EDCCE018E960E94B2020E94490269
:10177000C0CE61E08091A90347DC61E08091A903BC
:10178000ECDA62E370E080E090E07ADC6ECECE01CD
:1017900088960E94B2028DCFEDEFF2E013821282A2
:1017A00088EE93E0A0E0B0E084839583A683B783BE
:1017B0008AE092E09183808385EC90E0958784872E
:1017C00084EC90E09787868780EC90E0918B808B0B
:1017D00081EC90E0938B828B82EC90E0958B848BF4
:1017E00086EC90E0978B868B118E128E138E148E62
:1017F000EAE9F3E08CE192E0918380838AE08687D6
:1018000089E087870895BB27FB015527AA27880F02
:10181000991FAA1FA41710F0A41B83955051B9F764
:10182000A05DAA3308F0A95DA193009779F7B111E3
:10183000B1931192CB0100C0DC01FC01672F7191C3
:101840007723E1F7329704C07C916D9370836291A6
:10185000AE17BF07C8F30895EE0FFF1F881F8BBF99
:101860000790F691E02D19940F931F93CF93DF9378
:101870008230910510F482E090E0E091B503F091A0
:10188000B60320E030E0A0E0B0E0309719F14081ED
:1018900051810281138148175907C8F084179507B1
:1018A00069F4109731F012960C93129713961C93CB
:1018B00027C00093B5031093B60322C0211531054C
:1018C00019F04217530718F49A01BD01EF01DF0127
:1018D000F801DBCF21153105F9F0281B390B243035
:1018E000310580F48A819B816115710521F0FB012E
:1018F0009383828304C09093B6038093B503FE0163
:10190000329644C0FE01E20FF31F8193919322505F
:101910003109398328833AC02091B3033091B4034D
:10192000232B41F420910202309103023093B4033F
:101930002093B3032091000230910102211531055B
:1019400041F42DB73EB74091040250910502241B8B
:10195000350BE091B303F091B403E217F307A0F461
:101960002E1B3F0B2817390778F0AC014E5F5F4FF5
:101970002417350748F04E0F5F1F5093B403409370
:10198000B3038193919302C0E0E0F0E0CF01DF91D7
:10199000CF911F910F910895CF93DF93009709F492
:1019A00081C0FC01329713821282A091B503B091DD
:1019B000B603109781F420813181820F931F20910B
:1019C000B3033091B4032817390751F5F093B403EA
:1019D000E093B30367C0ED0120E030E0CE17DF07EE
:1019E00040F44A815B819E0141155105F1F0EA0105
:1019F000F5CFD383C28340815181840F951FC817CF
:101A0000D90759F488819981840F951F0296918393
:101A100080838A819B81938382832115310529F4F8
:101A2000F093B603E093B5033DC0E901FB83EA837D
:101A300049915991C40FD51FEC17FD0761F48081BE
:101A40009181840F951F0296E90199838883828191
:101A500093819B838A83E0E0F0E012968D919C91C4
:101A60001397009719F0FD01DC01F7CF8D919C9140
:101A700011979D012E5F3F4F820F931F2091B3035B
:101A80003091B4032817390769F4309729F410927C
:101A9000B6031092B50302C013821282B093B4034E
:101AA000A093B303DF91CF9108956F927F928F92AD
:101AB0009F92AF92BF92CF92DF92EF92FF920F93DD
:101AC0001F93CF93DF93009781F4CB01DF91CF91E8
:101AD0001F910F91FF90EF90DF90CF90BF90AF904C
:101AE0009F908F907F906F90BFCEFC01E60FF71F05
:101AF0009C0122503109E217F30708F4A5C0EC015C
:101B0000D9010D911C91119706171707A8F0053000
:101B1000110508F497C0C80104978617970708F4C1
:101B200091C002501109061B170B019311936D937D
:101B30007C93CF0131DF86C05B01A01AB10A4C0152
:101B4000800E911EA091B503B091B603612C712C4B
:101B5000E12CF12C109709F446C08D919C911197BE
:101B6000A815B905B1F56C0142E0C40ED11CCA1428
:101B7000DB0478F14C018A189B08640142E0C40E32
:101B8000D11C1296BC9012971396AC91B5E0CB166F
:101B9000D10440F0B282A38391828082D9016D93F7
:101BA0007C9309C00E5F1F4F800F911FF901918335
:101BB0008083EB2DFA2FE114F10431F0D701139655
:101BC000FC93EE9312973EC0F093B603E093B503F7
:101BD00039C06816790608F43C017D0112960D9013
:101BE000BC91A02DB7CF8091B3039091B403881618
:101BF0009906E1F466167706C8F480910002909188
:101C00000102009741F48DB79EB7409104025091B4
:101C10000502841B950BE817F907B0F4F093B403A1
:101C2000E093B303F901718360830CC0CB011CDE28
:101C30007C01009749F0A801BE0123D0CE01ACDEA3
:101C4000C70104C0CE0102C080E090E0DF91CF91D7
:101C50001F910F91FF90EF90DF90CF90BF90AF90CA
:101C60009F908F907F906F90089581E090E0F8941E
:101C700021C09111089581568A5108F480528558E7
:101C80000895FB01DC0102C001900D9241505040CB
:101C9000D8F70895FB01DC018D91019080190110A6
:101CA000D9F3990B0895FB01DC0101900D920020FE
:081CB000E1F70895F894FFCF5D
:101CB8000000B703800000000000DC014601740149
:101CC8002802A50183019701000000006304BE03F8
:101CD8008102203000417070726F78696D6174659F
:101CE80020796F7572206361726420746F20746844
:101CF80065207265616465722E2E2E000D0A0055EE
:101D0800494420746167203A004D657373616765C3
:101D1800203A200033372042372045382041390007
:101D280042352035392033452041310033422035B2
:101D38003220443920373300417574686F72697AEC
:101D48006564206163636573730068656C6C6F5FBD
:101D5800546172756E0068656C6C6F5F5072616E6D
:101D680061760068656C6C6F5F4861727368616466
:101D7800006268616476615F73706F747465640093
:101D8800204163636573732064656E6965640062EE
:101D98006861675F62686F73646976616C65007A11
:0C1DA8006161745F6B655F6261616C00DB
:00000001FF
