:1000000015C1000043C1000041C100003FC1000014
:100010003DC100003BC1000039C1000037C10000F4
:1000200035C1000033C1000031C100002FC1000004
:100030002DC100002BC1000029C1000027C1000014
:1000400025C1000023C1000021C100001FC1000024
:100050001DC100001BC1000019C1000068C60000DE
:1000600015C1000017C500004BC500000FC10000FE
:100070000DC100000BC1000009C1000007C1000054
:1000800005C1000003C1000001C10000FFC0000065
:10009000FDC00000FBC00000F9C00000F7C0000078
:1000A000F5C00000F3C00000F1C00000EFC0000088
:1000B000EDC00000EBC00000E9C00000E7C0000098
:1000C000E5C00000E3C00000E1C00000DFC00000A8
:1000D000DDC00000DBC00000D9C00000D7C00000B8
:1000E000D5C00000210E240E130E170E1D0E5B0E40
:1000F000280E2C0E320E360E3A0E400E440E480ECE
:100100005B0E4E0E520E560E00000A0B02090C0D2D
:100110000E080703040100000000000000000000BA
:1001200000000000000000000000000000000000CF
:10013000000000001211100000000000000000008C
:1001400000000000000000000000000000000102AC
:1001500010202008081020401020408002010201D9
:100160000804020101020408102040808040201091
:1001700008040201800402018040201008040201EA
:100180000804020101020408102040800102040852
:10019000102040800505050507050808080802022B
:1001A00002020A0A08080404040401010101010111
:1001B00001010303030303030303040707070C0CF4
:1001C0000C0C0C0C0C0C02020202060606060606BB
:1001D00006060B0B0B0B0B0B0B0B00002000230078
:1001E000260029002C002F0032000001000003012E
:1001F0000601090100002200250028002B002E0026
:100200003100340002010000050108010B0100006B
:100210002100240027002A002D00300033000101B6
:100220000000040107010A019001B20511241FBE5C
:10023000CFEFD1E2DEBFCDBF00E00CBF13E0A0E006
:10024000B2E0EEEDF2E200E00BBF02C007900D92CB
:10025000A037B107D9F724E0A0E7B3E001C01D92B1
:10026000AE32B207E1F711E0C6E1D1E000E006C02E
:1002700021970109802FFE010E94100FC431D10780
:1002800080E00807A9F79CD40C946D11B9CECF93E8
:10029000DF93EC01FB01248135816FD7CE01DF9123
:1002A000CF9108951092CD0083E38093CC00E9ECC8
:1002B000F0E0808188618083EAECF0E080818E60EC
:1002C000808308959091C80095FFFCCF8093CE0065
:1002D0000895CF93DF93EC018991882311F0F2DF29
:1002E000FBCFDF91CF91089583B3826283BB84B348
:1002F0008D7D84BB26E040E855E260E070E080E858
:1003000093E063D30E94D40D80E793E00E94A00A9B
:1003100066E072E080E893E0A0D480E893E09AC4BD
:1003200049E06AE080E793E00C94A109EF92FF9224
:100330000F931F93CF93DF93CDB7DEB768970FB6B8
:10034000F894DEBF0FBECDBF80E793E00E94A70DFB
:10035000882309F425C280E793E064D7F82E882328
:1003600009F41EC260E372E080E893E072D46CEAA4
:1003700072E0CE0143965AD6E12C80917203E816C2
:1003800008F03DC00E2D10E000591C4FF80183818C
:10039000803118F063E472E002C06DE272E080E840
:1003A00093E057D440E150E0F801638180E893E0A6
:1003B000B8D4F8018381803118F063E472E002C0A0
:1003C0006DE272E0CE01019631D6BE016F5F7F4FC4
:1003D000CE014396ADD6CE010196BED540E1F801DF
:1003E0006381CE0101964BD6BE016F5F7F4FCE0178
:1003F00043969ED6CE010196AFD5E394BECF80E85A
:1004000093E028D46AE372E080E893E022D4CE013E
:100410004396F6D641E050E0BE016D5E7F4FCE01BF
:100420000D9635DF65E472E0CE010D9687D6811119
:10043000B3C141E050E0BE016D5E7F4FCE01079633
:1004400026DF61E572E0CE01079678D6811115C0EE
:1004500041E050E0BE016D5E7F4FCE01019617DF97
:100460006DE572E0CE01019669D6FF24F394811107
:1004700001C0F12CCE0101966FD5CE0107966CD547
:10048000CE010D9669D5FF2009F41CC169E672E022
:1004900080E893E0E2D380E893E0DCD341E050E0F1
:1004A000BE016D5E7F4FCE010196F1DE65E472E024
:1004B000CE01019643D6182FCE0101964DD51123BA
:1004C00009F447C06BE772E080E893E0C6D3EADE48
:1004D000A19AFFEF23ED80E3F15020408040E1F747
:1004E00000C0000087E892E0F4DE9FEFE7EAF1E663
:1004F0009150E040F040E1F700C0000083E992E055
:10050000E8DE2FEF87EA91E6215080409040E1F746
:1005100000C000008DEA92E0DCDEEFEFF7EA21E6B2
:10052000E150F0402040E1F700C000008AE1CADE5F
:100530008FEF97EAE1E681509040E040E1F700C09C
:100540000000FFEF27EA81E6F15020408040E1F70C
:100550005AC041E050E0BE016D5E7F4FCE01019672
:1005600096DE61E572E0CE010196E8D5182FCE0146
:100570000196F2D4112309F44AC066EC72E080E8D7
:1005800093E06BD38FDEA19A9FEFE3EDF0E3915000
:10059000E040F040E1F700C0000087E892E099DE1B
:1005A0002FEF87EA91E6215080409040E1F700C0AC
:1005B000000083E992E08DDEEFEFF7EA21E6E150FB
:1005C000F0402040E1F700C0000083ED92E081DEC2
:1005D0008FEF97EAE1E681509040E040E1F700C0FC
:1005E00000008AE16FDEFFEF27EA81E6F15020404C
:1005F0008040E1F700C000009FEFE7EAF1E691508C
:10060000E040F040E1F700C00000A198C1C041E027
:1006100050E0BE016D5E7F4FCE01019638DE6DE584
:1006200072E0CE0101968AD5182FCE01019694D49E
:10063000112309F4ADC06DEE72E080E893E00DD3B4
:1006400031DEA19A2FEF83ED90E32150804090405E
:10065000E1F700C0000087E892E03BDEEFEFF7EA49
:1006600021E6E150F0402040E1F700C0000083E9BE
:1006700092E02FDE8FEF97EAE1E681509040E04074
:10068000E1F700C0000089EF92E023DEFFEF27EAE8
:1006900081E6F15020408040E1F700C000008AE18F
:1006A00011DE9FEFE7EAF1E69150E040F040E1F71C
:1006B00000C000002FEF87EA91E621508040904073
:1006C000E1F7A1CF41E050E0BE016D5E7F4FCE016A
:1006D0000196DDDD62E173E0CE0101962FD5182F82
:1006E000CE01019639D4112309F452C06EE173E0B2
:1006F00080E893E0B2D2D6DD84B3826284BBEFEFB0
:10070000F3ED20E3E150F0402040E1F700C00000AD
:1007100087E892E0DEDD8FEF97EAE1E681509040D6
:10072000E040E1F700C0000083E992E0D2DDFFEF96
:1007300027EA81E6F15020408040E1F700C0000048
:100740008CE293E0C6DD9FEFE7EAF1E69150E040EE
:10075000F040E1F700C000008AE1B4DD2FEF87EA46
:1007600091E6215080409040E1F700C00000EFEF9B
:10077000F7EA21E6E150F0402040E1F700C0000038
:1007800068EB7BE080E090E041D384B38D7D84BB57
:10079000CE014396E1D304C0CE010D96DDD376CED3
:1007A00068960FB6F894DEBF0FBECDBFDF91CF9134
:1007B0001F910F91FF90EF900895FC01918D228D74
:1007C000892F90E0805C9F4F821B91098F7399273E
:1007D0000895FC01918D828D981731F0828DE80F7C
:1007E000F11D858D90E008958FEF9FEF0895FC0136
:1007F000918D828D981761F0828DDF01A80FB11D58
:100800005D968C91928D9F5F9F73928F90E008957B
:100810008FEF9FEF0895FC01538D448D252F30E01D
:10082000842F90E0821B930B541710F0CF960895FD
:100830000197089589EA95E0892B39F080E090E0EE
:10084000892B19F086D1811125C080E090E0892B99
:1008500041F080E090E0892B21F00E94000081119E
:100860001CC080E090E0892B41F080E090E0892B73
:1008700021F00E940000811113C080E090E0892BDC
:10088000A1F080E090E0892B81F00E9400008111AE
:100890000AC008950E940000D8CF0E940000E1CF56
:1008A0000E940000EACF0C9400000895FC01848DA2
:1008B000DF01A80FB11DA35ABF4F2C91848D90E08A
:1008C00001968F739927848FA689B7892C93A08965
:1008D000B1898C91837080648C93938D848D9813EF
:1008E00006C00288F389E02D80818F7D8083089582
:1008F000EF92FF920F931F93CF93DF93EC0181E070
:10090000888F9B8D8C8D981305C0E889F98980812B
:1009100085FD25C0F62E0B8D10E00F5F1F4F0F7366
:100920001127E02E8C8DE8120BC00FB607FCFACF12
:10093000E889F989808185FFF5CFCE01B7DFF2CF55
:100940008B8DFE01E80FF11DE35AFF4FF0829FB738
:10095000F8940B8FEA89FB89808180620AC09FB777
:10096000F894EE89FF896083E889F9898081837032
:10097000806480839FBF81E090E0DF91CF911F91E1
:100980000F91FF90EF900895CF93DF93EC01888D46
:100990008823C1F0EA89FB89808185FD05C0A8898B
:1009A000B9898C9186FD0EC00FB607FCF5CF80810A
:1009B00085FFF2CFA889B9898C9185FFEDCFCE0153
:1009C00075DFE8CFDF91CF910895CF92DF92EF925C
:1009D000FF921F93CF93DF93EC016A017B01122FEB
:1009E000E889F98982E080834115514E61057105DE
:1009F000B1F060E079E08DE390E0A70196010E94FC
:100A0000EE0EDA01C9010197A109B109B695A795C2
:100A1000979587959C01211580E13807A8F0E88912
:100A2000F989108260E874E88EE190E0A7019601F0
:100A30000E94EE0EDA01C9010197A109B109B6952C
:100A4000A795979587959C01EC85FD853083EE856C
:100A5000FF852083188EEC89FD891083EA89FB8944
:100A6000808180618083EA89FB89808188608083BE
:100A7000EA89FB89808180688083EA89FB8980819B
:100A80008F7D8083DF91CF911F91FF90EF90DF905A
:100A9000CF9008951F920F920FB60F9211240BB6AC
:100AA0000F922F938F939F93EF93FF93E091900377
:100AB000F09191038081E0919603F091970382FD7C
:100AC00012C09081809199038F5F8F7320919A0358
:100AD000821751F0E0919903F0E0E058FC4F958FB8
:100AE0008093990301C08081FF91EF919F918F9135
:100AF0002F910F900BBE0F900FBE0F901F90189567
:100B00001F920F920FB60F9211240BB60F922F93D4
:100B10003F934F935F936F937F938F939F93AF9385
:100B2000BF93EF93FF9380E893E0C0DEFF91EF91D6
:100B3000BF91AF919F918F917F916F915F914F91F5
:100B40003F912F910F900BBE0F900FBE0F901F90F3
:100B5000189580E893E031DE21E0892B09F420E04C
:100B6000822F0895E0E8F3E01382128288EE93E08A
:100B7000A0E0B0E084839583A683B7838CE493E000
:100B80009183808385EC90E09587848784EC90E066
:100B90009787868780EC90E0918B808B81EC90E04A
:100BA000938B828B82EC90E0958B848B86EC90E02B
:100BB000978B868B118E128E138E148E0895089546
:100BC00069D1FDDF91DBCAE1D4E0B0DB2097E9F326
:100BD00031DEFBCFCF92DF92EF92FF920F931F9304
:100BE000CF93DF936C017A018B01C0E0D0E0CE158A
:100BF000DF0581F0D8016D918D01D601ED91FC9159
:100C00000190F081E02DC6011995892B11F02196F4
:100C1000EECF7E01C701DF91CF911F910F91FF9021
:100C2000EF90DF90CF9008956115710579F0FB0189
:100C300001900020E9F73197AF01461B570BDC010B
:100C4000ED91FC910280F381E02D199480E090E019
:100C50000895EACF6AEA72E0E7CF0F931F93CF932C
:100C6000DF93EC01E1DF8C01CE01F4DF800F911FF7
:100C7000DF91CF911F910F9108958F929F92AF9224
:100C8000BF92EF92FF920F931F93CF93DF93CDB755
:100C9000DEB7A1970FB6F894DEBF0FBECDBF7C01C3
:100CA000FA01CB0119A2223008F42AE08E010F5D6F
:100CB0001F4F822E912CA12CB12CBF01A5019401B4
:100CC0000E94EE0EF901CA01015011096A3010F4B8
:100CD000605D01C0695CD8016C93232B242B252B0C
:100CE00061F7B801C701A0DFA1960FB6F894DEBF87
:100CF0000FBECDBFDF91CF911F910F91FF90EF906D
:100D0000BF90AF909F908F9008952115310541F4C9
:100D1000DC01ED91FC910190F081E02D642F19949C
:100D2000ACCF9A01462F50E060E070E0EECF1F920A
:100D30000F920FB60F9211242F933F938F939F938F
:100D4000AF93BF9380911E0490911F04A091200443
:100D5000B091210430911D0423E0230F2D3720F49E
:100D60000196A11DB11D05C026E8230F0296A11D05
:100D7000B11D20931D0480931E0490931F04A09323
:100D80002004B09321048091220490912304A09127
:100D90002404B09125040196A11DB11D8093220465
:100DA00090932304A0932404B0932504BF91AF91A2
:100DB0009F918F913F912F910F900FBE0F901F9099
:100DC00018953FB7F8948091220490912304A09144
:100DD0002404B091250426B5A89B05C02F3F19F027
:100DE0000196A11DB11D3FBFBA2FA92F982F8827AB
:100DF000820F911DA11DB11DBC01CD0142E0660F06
:100E0000771F881F991F4A95D1F708958F929F9257
:100E1000AF92BF92CF92DF92EF92FF926B017C0173
:100E2000D0DF4B015C01C114D104E104F104F1F005
:100E3000EDD6C7DFDC01CB0188199909AA09BB09E6
:100E4000883E9340A105B10570F321E0C21AD10894
:100E5000E108F10888EE880E83E0981EA11CB11C01
:100E6000C114D104E104F10421F7DDCFFF90EF902C
:100E7000DF90CF90BF90AF909F908F900895823079
:100E8000910538F0880F991F880F991F05970197D2
:100E9000F1F70895789484B5826084BD84B581604B
:100EA00084BD85B5826085BD85B5816085BDEEE672
:100EB000F0E0808181608083E1E8F0E01082808151
:100EC00082608083808181608083E0E8F0E08081BF
:100ED00081608083E1EBF0E0808184608083E0EBDF
:100EE000F0E0808181608083E1E9F0E080818260D0
:100EF0008083808181608083E0E9F0E0808181608F
:100F00008083E1EAF0E0808182608083808181607B
:100F10008083E0EAF0E0808181608083E1E2F1E0BB
:100F2000808182608083808181608083E0E2F1E063
:100F3000808181608083EAE7F0E080818460808343
:100F400080818260808380818160808380818068ED
:100F500080831092C1000895FC01808191810C94DE
:100F6000B00FCF93DF93EC0188819981009709F04E
:100F7000F7D7198218821D821C821B821A82DF9188
:100F8000CF9108950F931F93CF93DF93EC018B01C3
:100F90006F5F7F4F888199810E943910009731F0EF
:100FA000998388831B830A8381E001C080E0DF91FD
:100FB000CF911F910F910895CF93DF93EC0188811A
:100FC0009981892B29F08A819B818617970758F48C
:100FD000CE01D8DF882341F08C819D81892B19F4C3
:100FE000E881F981108281E0DF91CF910895EF923D
:100FF000FF920F931F93CF93DF93EC017B018A0144
:10100000BA01DADF811103C0CE01ABDF07C01D8357
:101010000C83B701888199810E943311CE01DF9141
:10102000CF911F910F91FF90EF900895FC011182D5
:10103000108213821282158214826115710549F0A3
:10104000FB0101900020E9F73197AF01461B570BD8
:10105000CECF0895CF93DF93EC016115710551F068
:10106000FB0101900020E9F73197AF01461B570BB8
:10107000BEDF01C076DFCE01DF91CF9108950F93DF
:101080001F93CF93DF93CDB7DEB729970FB6F894B0
:10109000DEBF0FBECDBF8C01862FF80111821082FA
:1010A000138212821582148250E0BE016F5F7F4F5F
:1010B00090E00E943A11BE016F5F7F4FC801CADF06
:1010C00029960FB6F894DEBF0FBECDBFDF91CF914A
:1010D0001F910F910895EF92FF920F931F93CF935B
:1010E000DF936115710511F480E01BC041155105B6
:1010F000B9F07B01EC018C819D818A01080F191FD9
:10110000B801CE0159DF882379F3288139818C8198
:101110009D81B701820F931F0E9433111D830C83A1
:1011200081E0DF91CF911F910F91FF90EF90089593
:10113000FB014481558160817181CDCFFC01248107
:101140003581232B31F421E061157105A1F0FB01FC
:1011500008C0FC01808191816115710531F421E0A5
:10116000FC018081882339F005C00E942A1121E00A
:10117000892B09F020E0822F0895BF92CF92DF9251
:10118000EF92FF920F931F93CF93DF937C016B013C
:101190008A01E9012417350720F4812F8901C42F22
:1011A000D82F6CEA72E0C70141DFD60114968D9109
:1011B0009C91159708171907C0F48C179D0708F420
:1011C000EC01D601ED91FC911197EC0FFD1FB08061
:1011D00010826D917C91600F711FC7013BDFD601BA
:1011E000ED91FC91EC0FFD1FB082C701DF91CF9113
:1011F0001F910F91FF90EF90DF90CF90BF900895D7
:10120000CF93DF93FC01C081D181209741F0888189
:10121000882329F090E00E9419118993F8CFDF917B
:10122000CF910895BC016E5F7F4FDC01ED91FC9181
:101230000190F081E02D40E0199591E0811190E05E
:10124000892F089520912804222399F04FB7F8940C
:1012500020912804213059F42DB3209326043DB366
:1012600020912704209523232DBB4FBF02C040931C
:1012700026048CBD9DBD08958EBD00000DB407FEF3
:10128000FDCF8EB5089580912804882361F09FB723
:10129000F8942091280480912604213019F48DBB04
:1012A0009FBF08958FBF0895AF92BF92CF92DF92F4
:1012B000EF92FF920F931F93CF93DF936C01A42EB5
:1012C00079016068B62E83E590E0BCDF60E0F6014E
:1012D00086852ED5AA948B2DCFDF002399F0CFEFF2
:1012E000D0E001C0CC0F0A95EAF78B2DC5DF2C2F7B
:1012F0002095F701908192238C23892BF70180831D
:1013000011E001C010E0812F90E0E701C80FD91F64
:101310001A1528F48B2DB0DF88831F5FF4CF80E08F
:10132000ABDF888361E0F601868502D5DF91CF913E
:101330001F910F91FF90EF90DF90CF90BF90AF90F3
:10134000A2CFFC018AE693E091838083668747877A
:1013500008950F931F93CF93DF93EC01062F142F63
:1013600083E590E06FDF60E08E85E2D4802F84DF3C
:10137000812F82DF61E08E85DBD4DF91CF911F91D9
:101380000F9181CFDF92EF92FF920F931F93CF9334
:10139000DF938C01C62FF42ED22EE32E83E590E04E
:1013A00051DF60E0F8018685C3D48C2F65DFCD2D39
:1013B000DE2DCE018F0D911D7C01EC16FD0619F07E
:1013C00089915ADFFACF61E0F8018685B1D4DF91C7
:1013D000CF911F910F91FF90EF90DF9054CF1F930B
:1013E000CF93DF93EC01162F83E590E02BDF60E0D5
:1013F0008E859ED4812F80683FDF80E03DDF182FEF
:1014000061E08E8595D43FDF812FDF91CF911F91D1
:1014100008950F93411148DF0F9108950F931F9383
:10142000CF93DF938C01D62FC42FD9DF482F4C2BBD
:101430006D2FC801DF91CF911F910F918ACF0F932C
:101440001F93CF93DF938C01D62FC42FC8DFC09595
:101450004C2F48236D2FC801DF91CF911F910F9121
:1014600078CFCF92DF92EF92FF920F931F93CF939B
:10147000DF93EC016B01142F790140E062E069DF3A
:1014800044E06AE0CE0165DF40E864E1CE0161DF5F
:101490009601412F62E1CE0175DF43E062E0CE01AB
:1014A00058DF08E813E16AE0CE0199DF82FF10C03F
:1014B00040E062E0CE014DDF64E4CE0190DFF70151
:1014C000808362E4CE018BDFF701818380E004C07A
:1014D0000150110941F783E0DF91CF911F910F91E6
:1014E000FF90EF90DF90CF9008950F931F93CF93CD
:1014F0008C014FE062E02DDFC3E062E370E080E04A
:1015000090E084DC62E0C8016ADF84FF02C0C15061
:10151000A1F7CF911F910F910895CF93DF93EC0125
:1015200068E25DDF982F9370933039F0482F436065
:1015300068E2CE01DF91CF910CCFDF91CF9108957A
:10154000CF93DF93EC0161E08E85B6D361E08E85A9
:10155000EFD38F858F3F09F440C060E0ADD38F8516
:1015600015D4892B09F039C061E08F85A5D360E0DF
:101570008F85DED382E090E082DC61E08F85D8D376
:1015800062E370E080E090E041DC40E064E2CE01A4
:10159000E0DE40E066E2CE01DCDE46E268E4CE0159
:1015A000D8DE40E864E5CE01D4DE49EA66E5CE0146
:1015B000D0DE43E068E5CE01CCDE48EE6AE5CE0140
:1015C000C8DE40E46AE2CE01C4DE4DE362E2CE0151
:1015D000C0DECE01DF91CF91A0CFCE0186DFD5CF87
:1015E0003F924F925F926F927F928F929F92AF92B3
:1015F000BF92CF92DF92EF92FF920F931F93CF9300
:10160000DF931F921F92CDB7DEB73C01162F942EA9
:101610002901A114B10419F0F501408101C040E095
:10162000342EF0E18F9E300C112440E062E0C301C3
:1016300090DE4FE768E0C3018CDE40E864E1C3015F
:1016400088DE9201402F62E1C3019CDE432D6AE1F6
:10165000C3017FDE412F62E0C3017BDE1C3021F439
:1016600040E86AE1C301DADE00ED17E068E0C3019B
:10167000B6DE982F992139F480FD03C0015011097D
:10168000A9F783E060C06CE0C301A9DE182F837165
:1016900009F056C0E114F104E1F0C114D104C9F01D
:1016A00064E1C3019CDEF6019081981708F442C002
:1016B0008083082D9701482F62E1C301AADE68E10B
:1016C000C3018DDE8770A114B10421F0F501808380
:1016D00001C080E013FD30C0E114F10479F1C114C0
:1016E000D10461F19F89992349F1F601408141308C
:1016F00021F4843039F58FEF26C0423018F1811182
:1017000021C042509E012F5F3F4FB701C301A9DEA8
:10171000811119C0F6018081E80EF11CF7013297A2
:101720009081898198130EC0319690818A81981397
:1017300009C004C084E007C082E005C080E003C0A7
:1017400081E001C087E00F900F90DF91CF911F9152
:101750000F91FF90EF90DF90CF90BF90AF909F9050
:101760008F907F906F905F904F903F9008958F92F1
:10177000AF92BF92CF92DF92EF92FF920F931F939F
:10178000AF928C2C570168017901042F9B0140E333
:101790006CE026DF0F901F910F91FF90EF90DF908C
:1017A000CF90BF90AF908F9008952F923F924F921D
:1017B0005F926F927F928F929F92AF92BF92CF92E1
:1017C000DF92EF92FF920F931F93CF93DF93CDB7EA
:1017D000DEB72C970FB6F894DEBF0FBECDBF4135F4
:1017E00008F000C1342E3B014C0140E86CE127DEDB
:1017F0002224239432E0231691F083E02816E1F0AE
:1018000091E02912F3C083E989833320D1F081E08C
:10181000F3019081953008F480E0B12C17C0F5E910
:10182000F983332081F081E0F3019081983008F44E
:1018300080E043E0B42E0AC087E9898336E0B32E06
:1018400004C0B12C02C023E0B22E80E0D32CF8E01B
:10185000BF9ED0181124D7FCD12C882321F098E802
:101860009B8333E001C032E021E09D2D977009F4A5
:1018700020E09D2D959595959595290F31F4882318
:1018800009F48DC038E0D30E8AC0811102C094E003
:1018900001C093E0291708F4922FEB2DF0E0319668
:1018A000E60DF71D232F4191A1E0B0E0AC0FBD1F65
:1018B000A20FB11D4C932F5F422F431B491798F382
:1018C000DECF8111D8C09FE19D150CF491C080E25C
:1018D000D82E90E79A839B818C8189279D818927C7
:1018E0009E8189278F839E01285F3F4F47E0BE017D
:1018F0006F5F7F4FC401B5DD8111BDC01B86E3E082
:10190000EA87CE0107962C0199E09C87CB844C2D69
:101910004295407F4C0D6AE1C4011BDDA12CCE0134
:101920000B967C018E01065F1F4F92014C85BE0114
:101930006F5F7F4FC4011BDF823009F0C2CF6CE1C3
:10194000C4014DDD85FD50C08F7109F480E2282F60
:1019500030E04D2DDD0C550B421753070CF046C0FF
:10196000D82E85958595859591E0980F422F4770E3
:1019700081E009F480E0890FE1E0F0E0EC0FFD1F69
:10198000E80FF11D215031092770332781E090E0E5
:1019900001C0880F2A95EAF79081892B80838FE117
:1019A0008D150CF496CF9D2D97709B878D2D859569
:1019B000859585958E5F292FE0E18E9F200D11245E
:1019C0002A8321E0911101C020E0280F2C874424B4
:1019D0004394512C4C0E5D1E480E511CF9E0F81B2F
:1019E000FA8794CF86E047C082E045C085E043C0D7
:1019F0008B818838E9F182E094E0EB2DF0E03196BC
:101A0000E60DF71D980FA1E0B0E0AC0FBD1FA80FC9
:101A1000B11D2C9121938F5F9813F5CF8A85833068
:101A200019F58B85811120C09E012D5F3F4F41E04C
:101A3000B201C40116DD81111EC09B81F2018181BA
:101A4000981314C09C818281981310C0808182FFFA
:101A500002C02394CFCEF3018387822D880F820D9D
:101A60008F5F808380E007C081E005C087E003C00E
:101A700083E093E0C2CF2C960FB6F894DEBF0FBE82
:101A8000CDBFDF91CF911F910F91FF90EF90DF902D
:101A9000CF90BF90AF909F908F907F906F905F900E
:101AA0004F903F902F9008954F925F926F927F9248
:101AB0008F929F92AF92CF92EF92FF920F931F93CC
:101AC000CF93DF931F921F92CDB7DEB76A83411584
:101AD000510529F1F9016081623008F149012A01BB
:101AE0003C0140E86CE1ABDC87E08983A12CC12C90
:101AF000CE0101967C018401920141E0BE016E5F3E
:101B00007F4FC30134DE81110DC0F401808182302A
:101B100041F481E09981911105C080E003C084E027
:101B200001C081E00F900F90DF91CF911F910F9135
:101B3000FF90EF90CF90AF909F908F907F906F909D
:101B40005F904F9008959A01AB0166E2ADCF0F937D
:101B50001F93CF93DF9300D0CDB7DEB78C0182E027
:101B60008B8340E064E2C801F4DB40E066E2C80138
:101B7000F0DB46E268E4C801ECDBAE014D5F5F4F8D
:101B8000BE016F5F7F4FC801DEDF982F81E0992390
:101B900019F0923009F080E00F900F900F90DF91D4
:101BA000CF911F910F910895CF93CFB7F894809163
:101BB0002904811123C0E9ECF1E08491E3E8F1E02C
:101BC0009491E82FF0E0EE0FFF1FE25FFD4FA5912B
:101BD000B491EC91E92319F461E085E3A9D061E0C7
:101BE00085E36AD08CB580618CBD8CB580648CBD7A
:101BF00061E084E361D061E083E35ED080912904F9
:101C00008F5F80932904CFBFCF910895089590E00E
:101C1000FC013197E231F10508F04DC08827EE58FC
:101C2000FF4F8F4FFDC0809180008F7703C0809160
:101C300080008F7D80938000089580918000877F51
:101C4000F9CF84B58F7702C084B58F7D84BD0895A8
:101C50008091B0008F7703C08091B0008F7D80931A
:101C6000B0000895809190008F7707C08091900018
:101C70008F7D03C080919000877F809390000895AE
:101C80008091A0008F7707C08091A0008F7D03C056
:101C90008091A000877F8093A0000895809120010B
:101CA0008F7707C0809120018F7D03C08091200134
:101CB000877F809320010895CF93DF9390E0FC010C
:101CC000E25BFE4F2491FC01EC56FE4F8491882389
:101CD00061F190E0880F991FFC01E25FFD4FC59113
:101CE000D491FC01EC50FE4FA591B491611109C053
:101CF0009FB7F8948881209582238883EC912E23C6
:101D00000BC0623061F49FB7F8948881322F309510
:101D100083238883EC912E2B2C939FBF06C08FB713
:101D2000F894E8812E2B28838FBFDF91CF910895FF
:101D30001F93CF93DF93282F30E0F901E85FFE4F28
:101D40008491F901E25BFE4FD491F901EC56FE4F0C
:101D5000C491CC23B9F0162F811159DFEC2FF0E09C
:101D6000EE0FFF1FEC50FE4FA591B4919FB7F89472
:101D7000111104C08C91D095D82302C0EC91DE2BB8
:101D8000DC939FBFDF91CF911F910895CF93DF9395
:101D9000282F30E0F901E85FFE4F8491F901E25B02
:101DA000FE4FD491F901EC56FE4FC491CC2389F03B
:101DB00081112DDFEC2FF0E0EE0FFF1FE652FE4FFA
:101DC000A591B491EC91ED2381E090E021F480E0C5
:101DD00002C080E090E0DF91CF910895A1E21A2E39
:101DE000AA1BBB1BFD010DC0AA1FBB1FEE1FFF1FBF
:101DF000A217B307E407F50720F0A21BB30BE40B0F
:101E0000F50B661F771F881F991F1A9469F7609555
:101E10007095809590959B01AC01BD01CF0108950F
:101E2000EE0FFF1F881F8BBF0790F691E02D1994CE
:101E30000F931F93CF93DF938230910510F482E0CC
:101E400090E0E0912C04F0912D0420E030E0A0E03F
:101E5000B0E0309719F14081518102811381481718
:101E60005907C8F08417950769F4109731F0129656
:101E70000C93129713961C9327C000932C04109375
:101E80002D0422C02115310519F04217530718F40B
:101E90009A01BD01EF01DF01F801DBCF211531050A
:101EA000F9F0281B390B2430310580F48A819B819D
:101EB0006115710521F0FB019383828304C0909327
:101EC0002D0480932C04FE01329644C0FE01E20FE3
:101ED000F31F8193919322503109398328833AC0AB
:101EE00020912A0430912B04232B41F420910202EB
:101EF0003091030230932B0420932A042091000296
:101F0000309101022115310541F42DB73EB74091C2
:101F1000040250910502241B350BE0912A04F09134
:101F20002B04E217F307A0F42E1B3F0B28173907E9
:101F300078F0AC014E5F5F4F2417350748F04E0F25
:101F40005F1F50932B0440932A048193919302C006
:101F5000E0E0F0E0CF01DF91CF911F910F91089564
:101F6000CF93DF93009709F481C0FC01329713826D
:101F70001282A0912C04B0912D04109781F420813D
:101F80003181820F931F20912A0430912B0428174E
:101F9000390751F5F0932B04E0932A0467C0ED0153
:101FA00020E030E0CE17DF0740F44A815B819E01DC
:101FB00041155105F1F0EA01F5CFD383C283408189
:101FC0005181840F951FC817D90759F488819981C9
:101FD000840F951F0296918380838A819B819383CE
:101FE00082832115310529F4F0932D04E0932C040C
:101FF0003DC0E901FB83EA8349915991C40FD51F84
:10200000EC17FD0761F480819181840F951F029682
:10201000E90199838883828193819B838A83E0E0AD
:10202000F0E012968D919C911397009719F0FD01A5
:10203000DC01F7CF8D919C9111979D012E5F3F4F51
:10204000820F931F20912A0430912B0428173907FF
:1020500069F4309729F410922D0410922C0402C0D8
:1020600013821282B0932B04A0932A04DF91CF91A4
:1020700008956F927F928F929F92AF92BF92CF926C
:10208000DF92EF92FF920F931F93CF93DF9300970E
:1020900081F4CB01DF91CF911F910F91FF90EF90D1
:1020A000DF90CF90BF90AF909F908F907F906F9078
:1020B000BFCEFC01E60FF71F9C0122503109E21749
:1020C000F30708F4A5C0EC01D9010D911C911197FB
:1020D00006171707A8F00530110508F497C0C801C6
:1020E00004978617970708F491C002501109061B40
:1020F000170B019311936D937C93CF0131DF86C051
:102100005B01A01AB10A4C01800E911EA0912C0413
:10211000B0912D04612C712CE12CF12C109709F455
:1021200046C08D919C911197A815B905B1F56C0128
:1021300042E0C40ED11CCA14DB0478F14C018A18A9
:102140009B08640142E0C40ED11C1296BC90129709
:102150001396AC91B5E0CB16D10440F0B282A383C4
:1021600091828082D9016D937C9309C00E5F1F4FCD
:10217000800F911FF90191838083EB2DFA2FE114D9
:10218000F10431F0D7011396FC93EE9312973EC001
:10219000F0932D04E0932C0439C06816790608F4F6
:1021A0003C017D0112960D90BC91A02DB7CF80917E
:1021B0002A0490912B0488169906E1F46616770696
:1021C000C8F48091000290910102009741F48DB70C
:1021D0009EB74091040250910502841B950BE817AD
:1021E000F907B0F4F0932B04E0932A04F90171830A
:1021F00060830CC0CB011CDE7C01009749F0A80174
:10220000BE011FD0CE01ACDEC70104C0CE0102C0AA
:1022100080E090E0DF91CF911F910F91FF90EF90C0
:10222000DF90CF90BF90AF909F908F907F906F90F6
:1022300008959111089581568A5108F48052855865
:102240000895FB01DC0102C001900D924150504005
:10225000D8F70895FB01DC018D91019080190110E0
:10226000D9F3990B0895FB01DC0101900D92002038
:10227000E1F708954532510518F4423008F004C0E2
:10228000FB011082CB010895BB27FB015527AA272C
:10229000880F991FAA1FA41710F0A41B83955051F3
:1022A000B9F7A05DAA3308F0A95DA193009779F76B
:1022B000B111B1931192CB0100C0DC01FC01672F79
:1022C00071917723E1F7329704C07C916D9370830D
:0E22D0006291AE17BF07C8F30895F894FFCFD0
:1022DE0000002E042000417070726F78696D617479
:1022EE006520796F7572206361726420746F20743B
:1022FE006865207265616465722E2E2E0020300096
:10230E0055494420746167203A004D6573736167C7
:10231E0065203A2000333720423720453820413996
:10232E0000423520353920334520413100334220DB
:10233E00353220443920373300417574686F726925
:10234E007A6564206163636573730068656C6C6F96
:10235E005F546172756E0041542B434D47463D31BB
:10236E000D0A0041542B434D47533D222B39313931
:10237E00353532343738303839220D0A005441524F
:10238E00554E2C524649442D33372042372045387E
:10239E002041390D0A0068656C6C6F5F5072616E7A
:1023AE006176005052414E41562C524649442D42C0
:1023BE00352035392033452041310D0A0068656CD2
:1023CE006C6F5F56696E69740056494E49542C52B3
:1023DE004649442D33422035322044392037330DBF
:1023EE000A00443620373620443820464200204723
:1023FE007565737420416363657373004775657308
:10240E00742041636365737321456E747279205332
:10241E00746F7265640D0A00000000007804EA050E
:10242E000B04C404DD03F703E9036E616E00696EED
:10243E0066006F76660000000000D50BA70D12092E
:00000001FF
