:1000000033C0000044C0000042C0000040C00000F7
:100010003EC000003CC000003AC0000038C00000F4
:1000200036C0000034C0000032C0000030C0000004
:100030002EC000002CC000002AC0000028C0000014
:1000400026C0000024C0000022C0000020C0000024
:100050001EC000001CC000001AC0000018C0000034
:1000600016C0000014C0000011241FBECFEFD8E05E
:10007000DEBFCDBF11E0A0E0B1E0E0E0F1E002C002
:1000800005900D92A630B107D9F729D037C0B8CF67
:1000900008951092C50083E38093C400E1ECF0E082
:1000A000808188618083E2ECF0E080818E608083D3
:1000B0000895E0ECF0E0908195FFFDCF8093C600BD
:1000C0000895CF93DF93EC018881882329F021964E
:1000D000F0DF89918111FCCFDF91CF910895D8DFB6
:1000E000D8DF80E091E0EDDF2FEF89E698E1215045
:1000F00080409040E1F700C00000F3CFF894FFCFBC
:0601000041540D0A00004D
:00000001FF
